{
  "contractName": "AliveTest",
  "abi": [
    {
      "inputs": [],
      "payable": false,
      "stateMutability": "nonpayable",
      "type": "constructor"
    },
    {
      "constant": true,
      "inputs": [],
      "name": "endTime",
      "outputs": [
        {
          "internalType": "uint256",
          "name": "",
          "type": "uint256"
        }
      ],
      "payable": false,
      "stateMutability": "view",
      "type": "function"
    },
    {
      "constant": true,
      "inputs": [],
      "name": "inputData",
      "outputs": [
        {
          "internalType": "string",
          "name": "",
          "type": "string"
        }
      ],
      "payable": false,
      "stateMutability": "view",
      "type": "function"
    },
    {
      "constant": true,
      "inputs": [],
      "name": "owner",
      "outputs": [
        {
          "internalType": "address",
          "name": "",
          "type": "address"
        }
      ],
      "payable": false,
      "stateMutability": "view",
      "type": "function"
    },
    {
      "constant": true,
      "inputs": [],
      "name": "state",
      "outputs": [
        {
          "internalType": "string",
          "name": "",
          "type": "string"
        }
      ],
      "payable": false,
      "stateMutability": "view",
      "type": "function"
    },
    {
      "constant": false,
      "inputs": [
        {
          "internalType": "string",
          "name": "statusKey",
          "type": "string"
        }
      ],
      "name": "getInput",
      "outputs": [],
      "payable": false,
      "stateMutability": "nonpayable",
      "type": "function"
    },
    {
      "constant": false,
      "inputs": [],
      "name": "storageState",
      "outputs": [
        {
          "internalType": "enum AliveTest.Status",
          "name": "",
          "type": "uint8"
        }
      ],
      "payable": false,
      "stateMutability": "nonpayable",
      "type": "function"
    },
    {
      "constant": false,
      "inputs": [],
      "name": "setTimer",
      "outputs": [],
      "payable": false,
      "stateMutability": "nonpayable",
      "type": "function"
    },
    {
      "constant": false,
      "inputs": [],
      "name": "isEnd",
      "outputs": [
        {
          "internalType": "enum AliveTest.Status",
          "name": "",
          "type": "uint8"
        }
      ],
      "payable": false,
      "stateMutability": "nonpayable",
      "type": "function"
    }
  ],
  "bytecode": "0x608060405234801561001057600080fd5b5033600160006101000a81548173ffffffffffffffffffffffffffffffffffffffff021916908373ffffffffffffffffffffffffffffffffffffffff160217905550610918806100616000396000f3fe608060405234801561001057600080fd5b50600436106100885760003560e01c806399c33a531161005b57806399c33a53146101dc578063aa302f2214610208578063b0185da41461028b578063c19d93fb1461029557610088565b80632fc6e8b71461008d5780633197cbb6146100b957806331cc48fd146100d75780638da5cb5b14610192575b600080fd5b610095610318565b604051808260028111156100a557fe5b60ff16815260200191505060405180910390f35b6100c1610426565b6040518082815260200191505060405180910390f35b610190600480360360208110156100ed57600080fd5b810190808035906020019064010000000081111561010a57600080fd5b82018360208201111561011c57600080fd5b8035906020019184600183028401116401000000008311171561013e57600080fd5b91908080601f016020809104026020016040519081016040528093929190818152602001838380828437600081840152601f19601f82011690508083019250505050505050919291929050505061042c565b005b61019a610509565b604051808273ffffffffffffffffffffffffffffffffffffffff1673ffffffffffffffffffffffffffffffffffffffff16815260200191505060405180910390f35b6101e461052f565b604051808260028111156101f457fe5b60ff16815260200191505060405180910390f35b6102106106f6565b6040518080602001828103825283818151815260200191508051906020019080838360005b83811015610250578082015181840152602081019050610235565b50505050905090810190601f16801561027d5780820380516001836020036101000a031916815260200191505b509250505060405180910390f35b610293610794565b005b61029d6107a0565b6040518080602001828103825283818151815260200191508051906020019080838360005b838110156102dd5780820151818401526020810190506102c2565b50505050905090810190601f16801561030a5780820380516001836020036101000a031916815260200191505b509250505060405180910390f35b6000600160009054906101000a900473ffffffffffffffffffffffffffffffffffffffff1673ffffffffffffffffffffffffffffffffffffffff163373ffffffffffffffffffffffffffffffffffffffff16146103dd576040517f08c379a00000000000000000000000000000000000000000000000000000000081526004018080602001828103825260168152602001807f496e76616c69642041757468656e7469636174696f6e0000000000000000000081525060200191505060405180910390fd5b426003541415610422576002600460006101000a81548160ff0219169083600281111561040657fe5b0217905550600460009054906101000a900460ff169050610423565b5b90565b60035481565b600160009054906101000a900473ffffffffffffffffffffffffffffffffffffffff1673ffffffffffffffffffffffffffffffffffffffff163373ffffffffffffffffffffffffffffffffffffffff16146104ef576040517f08c379a00000000000000000000000000000000000000000000000000000000081526004018080602001828103825260168152602001807f496e76616c69642041757468656e7469636174696f6e0000000000000000000081525060200191505060405180910390fd5b806000908051906020019061050592919061083e565b5050565b600160009054906101000a900473ffffffffffffffffffffffffffffffffffffffff1681565b6000600160009054906101000a900473ffffffffffffffffffffffffffffffffffffffff1673ffffffffffffffffffffffffffffffffffffffff163373ffffffffffffffffffffffffffffffffffffffff16146105f4576040517f08c379a00000000000000000000000000000000000000000000000000000000081526004018080602001828103825260168152602001807f496e76616c69642041757468656e7469636174696f6e0000000000000000000081525060200191505060405180910390fd5b60405160200180807f4920616d20616c69766500000000000000000000000000000000000000000000815250600a019050604051602081830303815290604052805190602001206000604051602001808280546001816001161561010002031660029004801561069b5780601f1061067957610100808354040283529182019161069b565b820191906000526020600020905b815481529060010190602001808311610687575b50509150506040516020818303038152906040528051906020012014156106e1576001600460006101000a81548160ff021916908360028111156106db57fe5b02179055505b600460009054906101000a900460ff16905090565b60008054600181600116156101000203166002900480601f01602080910402602001604051908101604052809291908181526020018280546001816001161561010002031660029004801561078c5780601f106107615761010080835404028352916020019161078c565b820191906000526020600020905b81548152906001019060200180831161076f57829003601f168201915b505050505081565b603c4201600381905550565b60028054600181600116156101000203166002900480601f0160208091040260200160405190810160405280929190818152602001828054600181600116156101000203166002900480156108365780601f1061080b57610100808354040283529160200191610836565b820191906000526020600020905b81548152906001019060200180831161081957829003601f168201915b505050505081565b828054600181600116156101000203166002900490600052602060002090601f016020900481019282601f1061087f57805160ff19168380011785556108ad565b828001600101855582156108ad579182015b828111156108ac578251825591602001919060010190610891565b5b5090506108ba91906108be565b5090565b6108e091905b808211156108dc5760008160009055506001016108c4565b5090565b9056fea265627a7a7231582004f4037fdadfb3b65279da427bd9df2294cc4c858b28e431fc1324c3db39ef0c64736f6c634300050c0032",
  "source": "pragma solidity ^0.5.11;\r\n\r\ncontract AliveTest {\r\n\r\n    string public inputData;\r\n    address public owner;\r\n    string public state;\r\n    uint public endTime;\r\n\r\n    enum Status {\r\n        unknown, alive, missing\r\n    }\r\n    Status statusNow;\r\n    Status constant defaultstatusNow = Status.unknown;\r\n    constructor() public\r\n        {\r\n            owner = msg.sender;\r\n        }\r\n    modifier isOwner (){\r\n        require(msg.sender == owner, \"Invalid Authentication\");\r\n        _;\r\n    }\r\n\r\n    function getInput (string memory statusKey) public isOwner() {\r\n        inputData = statusKey;\r\n    }\r\n\r\n    function storageState () public isOwner() returns (Status) {\r\n        if(keccak256(abi.encodePacked(inputData)) == keccak256(abi.encodePacked(\"I am alive\")) ){\r\n            statusNow = Status.alive;\r\n        }\r\n        return statusNow;\r\n    }\r\n    function setTimer() public {\r\n        endTime = now + 60 seconds;\r\n    }\r\n    function isEnd () public isOwner() returns(Status){\r\n        if( endTime == now){\r\n            statusNow = Status.missing;\r\n            return statusNow;\r\n        }\r\n    }\r\n}",
  "sourcePath": "C:/Users/Monica/Desktop/SIT764/alivequiz/contracts/quiz.sol",
  "compiler": {
    "name": "solc",
    "version": "0.5.12+commit.7709ece9.Emscripten.clang"
  },
  "schemaVersion": "3.0.20",
  "updatedAt": "2019-12-28T00:19:10.546Z",
  "devdoc": {
    "methods": {}
  },
  "userdoc": {
    "methods": {}
  }
}