{
  "contractName": "quiz",
  "abi": [
    {
      "inputs": [],
      "payable": false,
      "stateMutability": "nonpayable",
      "type": "constructor"
    },
    {
      "constant": true,
      "inputs": [],
      "name": "endTime",
      "outputs": [
        {
          "internalType": "uint256",
          "name": "",
          "type": "uint256"
        }
      ],
      "payable": false,
      "stateMutability": "view",
      "type": "function"
    },
    {
      "constant": true,
      "inputs": [],
      "name": "owner",
      "outputs": [
        {
          "internalType": "address",
          "name": "",
          "type": "address"
        }
      ],
      "payable": false,
      "stateMutability": "view",
      "type": "function"
    },
    {
      "constant": true,
      "inputs": [],
      "name": "statusNow",
      "outputs": [
        {
          "internalType": "enum quiz.Status",
          "name": "",
          "type": "uint8"
        }
      ],
      "payable": false,
      "stateMutability": "view",
      "type": "function"
    },
    {
      "constant": false,
      "inputs": [
        {
          "internalType": "string",
          "name": "inputData",
          "type": "string"
        }
      ],
      "name": "setStatus",
      "outputs": [],
      "payable": false,
      "stateMutability": "nonpayable",
      "type": "function"
    },
    {
      "constant": true,
      "inputs": [],
      "name": "getStatus",
      "outputs": [
        {
          "internalType": "string",
          "name": "",
          "type": "string"
        }
      ],
      "payable": false,
      "stateMutability": "view",
      "type": "function"
    }
  ],
  "bytecode": "0x608060405234801561001057600080fd5b50336000806101000a81548173ffffffffffffffffffffffffffffffffffffffff021916908373ffffffffffffffffffffffffffffffffffffffff1602179055506000600260006101000a81548160ff0219169083600281111561007057fe5b0217905550605a42016001819055506105a88061008e6000396000f3fe608060405234801561001057600080fd5b50600436106100575760003560e01c806312f2c72b1461005c5780633197cbb6146100885780634e69d560146100a65780637d2211d6146101295780638da5cb5b146101e4575b600080fd5b61006461022e565b6040518082600281111561007457fe5b60ff16815260200191505060405180910390f35b610090610241565b6040518082815260200191505060405180910390f35b6100ae610247565b6040518080602001828103825283818151815260200191508051906020019080838360005b838110156100ee5780820151818401526020810190506100d3565b50505050905090810190601f16801561011b5780820380516001836020036101000a031916815260200191505b509250505060405180910390f35b6101e26004803603602081101561013f57600080fd5b810190808035906020019064010000000081111561015c57600080fd5b82018360208201111561016e57600080fd5b8035906020019184600183028401116401000000008311171561019057600080fd5b91908080601f016020809104026020016040519081016040528093929190818152602001838380828437600081840152601f19601f820116905080830192505050505050509192919290505050610369565b005b6101ec61054e565b604051808273ffffffffffffffffffffffffffffffffffffffff1673ffffffffffffffffffffffffffffffffffffffff16815260200191505060405180910390f35b600260009054906101000a900460ff1681565b60015481565b6060600154421061028f576040518060400160405280600781526020017f4d697373696e67000000000000000000000000000000000000000000000000008152509050610366565b600260009054906101000a900460ff1660028111156102aa57fe5b600060028111156102b757fe5b14156102fa576040518060400160405280600781526020017f556e6b6e6f776e000000000000000000000000000000000000000000000000008152509050610366565b600260009054906101000a900460ff16600281111561031557fe5b6001600281111561032257fe5b1415610365576040518060400160405280600581526020017f416c6976650000000000000000000000000000000000000000000000000000008152509050610366565b5b90565b6000809054906101000a900473ffffffffffffffffffffffffffffffffffffffff1673ffffffffffffffffffffffffffffffffffffffff163373ffffffffffffffffffffffffffffffffffffffff161461042b576040517f08c379a00000000000000000000000000000000000000000000000000000000081526004018080602001828103825260168152602001807f496e76616c69642041757468656e7469636174696f6e0000000000000000000081525060200191505060405180910390fd5b60405160200180807f4920616d20616c69766500000000000000000000000000000000000000000000815250600a01905060405160208183030381529060405280519060200120816040516020018082805190602001908083835b602083106104a95780518252602082019150602081019050602083039250610486565b6001836020036101000a03801982511681845116808217855250505050505090500191505060405160208183030381529060405280519060200120141561051d576001600260006101000a81548160ff0219169083600281111561050957fe5b0217905550605a420160018190555061054b565b600154421061054a5760028060006101000a81548160ff0219169083600281111561054457fe5b02179055505b5b50565b6000809054906101000a900473ffffffffffffffffffffffffffffffffffffffff168156fea265627a7a72315820464b10bcbf71bc6b4adfd51013dd1077dbda97693440589ef5bfb1ec8109bf9b64736f6c634300050c0032",
  "source": "pragma solidity ^0.5.11;\r\n\r\ncontract quiz {\r\n\r\n    address public owner;\r\n    uint public endTime;\r\n\r\n    enum Status {\r\n        unknown, alive, missing\r\n    }\r\n    Status public statusNow;\r\n    constructor() public\r\n        {\r\n            owner = msg.sender;\r\n            statusNow = Status.unknown;\r\n            endTime = now + 90 seconds;\r\n        }\r\n    modifier isOwner(){\r\n        require(msg.sender == owner, \"Invalid Authentication\");\r\n        _;\r\n    }\r\n\r\n    function setStatus(string memory inputData) public isOwner(){\r\n        if(keccak256(abi.encodePacked(inputData)) == keccak256(abi.encodePacked(\"I am alive\")) ){\r\n            statusNow = Status.alive;\r\n            endTime = now + 90 seconds;\r\n        }\r\n        else if(now >= endTime)\r\n        {\r\n            statusNow = Status.missing;\r\n        }\r\n    }\r\n\r\n    /*function setEnd() public isOwner(){\r\n        if(now >= endTime){\r\n            statusNow = Status.missing;\r\n        }\r\n    }*/\r\n\r\n    function getStatus() public view returns(string memory){\r\n\r\n        if(now >= endTime){\r\n//            statusNow = Status.missing;\r\n            return \"Missing\";\r\n        }\r\n        else if(Status.unknown == statusNow){return \"Unknown\";}\r\n        else if(Status.alive == statusNow){return \"Alive\";}\r\n        }\r\n}",
  "sourcePath": "C:/Users/Monica/Desktop/SIT764/alivequiz/contracts/quiz.sol",
  "compiler": {
    "name": "solc",
    "version": "0.5.12+commit.7709ece9.Emscripten.clang"
  },
  "schemaVersion": "3.0.20",
  "updatedAt": "2019-12-29T23:06:13.524Z",
  "networkType": "ethereum",
  "devdoc": {
    "methods": {}
  },
  "userdoc": {
    "methods": {}
  }
}