{
  "contractName": "quiz",
  "abi": [
    {
      "inputs": [],
      "payable": false,
      "stateMutability": "nonpayable",
      "type": "constructor"
    },
    {
      "constant": true,
      "inputs": [],
      "name": "endTime",
      "outputs": [
        {
          "internalType": "uint256",
          "name": "",
          "type": "uint256"
        }
      ],
      "payable": false,
      "stateMutability": "view",
      "type": "function"
    },
    {
      "constant": true,
      "inputs": [],
      "name": "inputData",
      "outputs": [
        {
          "internalType": "string",
          "name": "",
          "type": "string"
        }
      ],
      "payable": false,
      "stateMutability": "view",
      "type": "function"
    },
    {
      "constant": true,
      "inputs": [],
      "name": "owner",
      "outputs": [
        {
          "internalType": "address",
          "name": "",
          "type": "address"
        }
      ],
      "payable": false,
      "stateMutability": "view",
      "type": "function"
    },
    {
      "constant": true,
      "inputs": [],
      "name": "statusNow",
      "outputs": [
        {
          "internalType": "enum quiz.Status",
          "name": "",
          "type": "uint8"
        }
      ],
      "payable": false,
      "stateMutability": "view",
      "type": "function"
    },
    {
      "constant": false,
      "inputs": [
        {
          "internalType": "string",
          "name": "statusKey",
          "type": "string"
        }
      ],
      "name": "getInput",
      "outputs": [],
      "payable": false,
      "stateMutability": "nonpayable",
      "type": "function"
    },
    {
      "constant": false,
      "inputs": [],
      "name": "storageState",
      "outputs": [],
      "payable": false,
      "stateMutability": "nonpayable",
      "type": "function"
    },
    {
      "constant": false,
      "inputs": [],
      "name": "setTimer",
      "outputs": [],
      "payable": false,
      "stateMutability": "nonpayable",
      "type": "function"
    },
    {
      "constant": false,
      "inputs": [],
      "name": "isEnd",
      "outputs": [],
      "payable": false,
      "stateMutability": "nonpayable",
      "type": "function"
    },
    {
      "constant": true,
      "inputs": [],
      "name": "getStatus",
      "outputs": [
        {
          "internalType": "string",
          "name": "",
          "type": "string"
        }
      ],
      "payable": false,
      "stateMutability": "view",
      "type": "function"
    }
  ],
  "bytecode": "0x608060405234801561001057600080fd5b5033600160006101000a81548173ffffffffffffffffffffffffffffffffffffffff021916908373ffffffffffffffffffffffffffffffffffffffff1602179055506000600360006101000a81548160ff0219169083600281111561007157fe5b0217905550610996806100856000396000f3fe608060405234801561001057600080fd5b50600436106100935760003560e01c80634e69d560116100665780634e69d560146101a75780638da5cb5b1461022a57806399c33a5314610274578063aa302f221461027e578063b0185da41461030157610093565b806312f2c72b146100985780632fc6e8b7146100c45780633197cbb6146100ce57806331cc48fd146100ec575b600080fd5b6100a061030b565b604051808260028111156100b057fe5b60ff16815260200191505060405180910390f35b6100cc61031e565b005b6100d6610411565b6040518082815260200191505060405180910390f35b6101a56004803603602081101561010257600080fd5b810190808035906020019064010000000081111561011f57600080fd5b82018360208201111561013157600080fd5b8035906020019184600183028401116401000000008311171561015357600080fd5b91908080601f016020809104026020016040519081016040528093929190818152602001838380828437600081840152601f19601f820116905080830192505050505050509192919290505050610417565b005b6101af6104f4565b6040518080602001828103825283818151815260200191508051906020019080838360005b838110156101ef5780820151818401526020810190506101d4565b50505050905090810190601f16801561021c5780820380516001836020036101000a031916815260200191505b509250505060405180910390f35b61023261063a565b604051808273ffffffffffffffffffffffffffffffffffffffff1673ffffffffffffffffffffffffffffffffffffffff16815260200191505060405180910390f35b61027c610660565b005b610286610812565b6040518080602001828103825283818151815260200191508051906020019080838360005b838110156102c65780820151818401526020810190506102ab565b50505050905090810190601f1680156102f35780820380516001836020036101000a031916815260200191505b509250505060405180910390f35b6103096108b0565b005b600360009054906101000a900460ff1681565b600160009054906101000a900473ffffffffffffffffffffffffffffffffffffffff1673ffffffffffffffffffffffffffffffffffffffff163373ffffffffffffffffffffffffffffffffffffffff16146103e1576040517f08c379a00000000000000000000000000000000000000000000000000000000081526004018080602001828103825260168152602001807f496e76616c69642041757468656e7469636174696f6e0000000000000000000081525060200191505060405180910390fd5b600254421061040f576002600360006101000a81548160ff0219169083600281111561040957fe5b02179055505b565b60025481565b600160009054906101000a900473ffffffffffffffffffffffffffffffffffffffff1673ffffffffffffffffffffffffffffffffffffffff163373ffffffffffffffffffffffffffffffffffffffff16146104da576040517f08c379a00000000000000000000000000000000000000000000000000000000081526004018080602001828103825260168152602001807f496e76616c69642041757468656e7469636174696f6e0000000000000000000081525060200191505060405180910390fd5b80600090805190602001906104f09291906108bc565b5050565b6060600360009054906101000a900460ff16600281111561051157fe5b6000600281111561051e57fe5b1415610561576040518060400160405280600781526020017f556e6b6e6f776e000000000000000000000000000000000000000000000000008152509050610637565b600360009054906101000a900460ff16600281111561057c57fe5b60028081111561058857fe5b14156105cb576040518060400160405280600781526020017f4d697373696e67000000000000000000000000000000000000000000000000008152509050610637565b600360009054906101000a900460ff1660028111156105e657fe5b600160028111156105f357fe5b1415610636576040518060400160405280600581526020017f416c6976650000000000000000000000000000000000000000000000000000008152509050610637565b5b90565b600160009054906101000a900473ffffffffffffffffffffffffffffffffffffffff1681565b600160009054906101000a900473ffffffffffffffffffffffffffffffffffffffff1673ffffffffffffffffffffffffffffffffffffffff163373ffffffffffffffffffffffffffffffffffffffff1614610723576040517f08c379a00000000000000000000000000000000000000000000000000000000081526004018080602001828103825260168152602001807f496e76616c69642041757468656e7469636174696f6e0000000000000000000081525060200191505060405180910390fd5b60405160200180807f4920616d20616c69766500000000000000000000000000000000000000000000815250600a01905060405160208183030381529060405280519060200120600060405160200180828054600181600116156101000203166002900480156107ca5780601f106107a85761010080835404028352918201916107ca565b820191906000526020600020905b8154815290600101906020018083116107b6575b5050915050604051602081830303815290604052805190602001201415610810576001600360006101000a81548160ff0219169083600281111561080a57fe5b02179055505b565b60008054600181600116156101000203166002900480601f0160208091040260200160405190810160405280929190818152602001828054600181600116156101000203166002900480156108a85780601f1061087d576101008083540402835291602001916108a8565b820191906000526020600020905b81548152906001019060200180831161088b57829003601f168201915b505050505081565b603c4201600281905550565b828054600181600116156101000203166002900490600052602060002090601f016020900481019282601f106108fd57805160ff191683800117855561092b565b8280016001018555821561092b579182015b8281111561092a57825182559160200191906001019061090f565b5b509050610938919061093c565b5090565b61095e91905b8082111561095a576000816000905550600101610942565b5090565b9056fea265627a7a72315820db82dc7f1814bdc7a42a240e13c2845dcb7b22f77367ab068aa26c66cb756d2664736f6c634300050c0032",
  "source": "pragma solidity ^0.5.11;\r\n\r\ncontract quiz {\r\n\r\n    string public inputData;\r\n    address public owner;\r\n    uint public endTime;\r\n\r\n    enum Status {\r\n        unknown, alive, missing\r\n    }\r\n    Status public statusNow;\r\n    constructor() public\r\n        {\r\n            owner = msg.sender;\r\n            statusNow = Status.unknown;\r\n        }\r\n    modifier isOwner(){\r\n        require(msg.sender == owner, \"Invalid Authentication\");\r\n        _;\r\n    }\r\n\r\n    function getInput(string memory statusKey) public isOwner() {\r\n        inputData = statusKey;\r\n    }\r\n        function storageState() public isOwner(){\r\n        if(keccak256(abi.encodePacked(inputData)) == keccak256(abi.encodePacked(\"I am alive\")) ){\r\n            statusNow = Status.alive;\r\n        }\r\n    }\r\n    function setTimer() public {\r\n        endTime = now + 60 seconds;\r\n    }\r\n    function isEnd() public isOwner(){\r\n        if(now >= endTime){\r\n            statusNow = Status.missing;\r\n        }\r\n    }\r\n    function getStatus() public view returns(string memory){\r\n        if(Status.unknown == statusNow){ return \"Unknown\";}\r\n        if(Status.missing == statusNow){ return \"Missing\";}\r\n        if(Status.alive == statusNow){ return \"Alive\";}\r\n    }\r\n}",
  "sourcePath": "C:/Users/Monica/Desktop/SIT764/alivequiz/contracts/quiz.sol",
  "compiler": {
    "name": "solc",
    "version": "0.5.12+commit.7709ece9.Emscripten.clang"
  },
  "schemaVersion": "3.0.20",
  "updatedAt": "2019-12-28T01:52:55.537Z",
  "networkType": "ethereum",
  "devdoc": {
    "methods": {}
  },
  "userdoc": {
    "methods": {}
  }
}